{
  "_format": "hh-sol-artifact-1",
  "contractName": "FireFlyWorkshopBadge",
  "sourceName": "contracts/FireFlyWorkshopBadge.sol",
  "abi": [
    {
      "inputs": [],
      "stateMutability": "nonpayable",
      "type": "constructor"
    },
    {
      "anonymous": false,
      "inputs": [
        {
          "indexed": true,
          "internalType": "address",
          "name": "owner",
          "type": "address"
        },
        {
          "indexed": true,
          "internalType": "address",
          "name": "approved",
          "type": "address"
        },
        {
          "indexed": true,
          "internalType": "uint256",
          "name": "tokenId",
          "type": "uint256"
        }
      ],
      "name": "Approval",
      "type": "event"
    },
    {
      "anonymous": false,
      "inputs": [
        {
          "indexed": true,
          "internalType": "address",
          "name": "owner",
          "type": "address"
        },
        {
          "indexed": true,
          "internalType": "address",
          "name": "operator",
          "type": "address"
        },
        {
          "indexed": false,
          "internalType": "bool",
          "name": "approved",
          "type": "bool"
        }
      ],
      "name": "ApprovalForAll",
      "type": "event"
    },
    {
      "anonymous": false,
      "inputs": [
        {
          "indexed": true,
          "internalType": "address",
          "name": "previousOwner",
          "type": "address"
        },
        {
          "indexed": true,
          "internalType": "address",
          "name": "newOwner",
          "type": "address"
        }
      ],
      "name": "OwnershipTransferred",
      "type": "event"
    },
    {
      "anonymous": false,
      "inputs": [
        {
          "indexed": false,
          "internalType": "address",
          "name": "account",
          "type": "address"
        }
      ],
      "name": "Paused",
      "type": "event"
    },
    {
      "anonymous": false,
      "inputs": [
        {
          "indexed": true,
          "internalType": "address",
          "name": "from",
          "type": "address"
        },
        {
          "indexed": true,
          "internalType": "address",
          "name": "to",
          "type": "address"
        },
        {
          "indexed": true,
          "internalType": "uint256",
          "name": "tokenId",
          "type": "uint256"
        }
      ],
      "name": "Transfer",
      "type": "event"
    },
    {
      "anonymous": false,
      "inputs": [
        {
          "indexed": false,
          "internalType": "address",
          "name": "account",
          "type": "address"
        }
      ],
      "name": "Unpaused",
      "type": "event"
    },
    {
      "inputs": [
        {
          "internalType": "address",
          "name": "to",
          "type": "address"
        },
        {
          "internalType": "uint256",
          "name": "tokenId",
          "type": "uint256"
        }
      ],
      "name": "approve",
      "outputs": [],
      "stateMutability": "nonpayable",
      "type": "function"
    },
    {
      "inputs": [
        {
          "internalType": "address",
          "name": "owner",
          "type": "address"
        }
      ],
      "name": "balanceOf",
      "outputs": [
        {
          "internalType": "uint256",
          "name": "",
          "type": "uint256"
        }
      ],
      "stateMutability": "view",
      "type": "function"
    },
    {
      "inputs": [
        {
          "internalType": "uint256",
          "name": "tokenId",
          "type": "uint256"
        }
      ],
      "name": "getApproved",
      "outputs": [
        {
          "internalType": "address",
          "name": "",
          "type": "address"
        }
      ],
      "stateMutability": "view",
      "type": "function"
    },
    {
      "inputs": [
        {
          "internalType": "address",
          "name": "owner",
          "type": "address"
        },
        {
          "internalType": "address",
          "name": "operator",
          "type": "address"
        }
      ],
      "name": "isApprovedForAll",
      "outputs": [
        {
          "internalType": "bool",
          "name": "",
          "type": "bool"
        }
      ],
      "stateMutability": "view",
      "type": "function"
    },
    {
      "inputs": [],
      "name": "name",
      "outputs": [
        {
          "internalType": "string",
          "name": "",
          "type": "string"
        }
      ],
      "stateMutability": "view",
      "type": "function"
    },
    {
      "inputs": [],
      "name": "owner",
      "outputs": [
        {
          "internalType": "address",
          "name": "",
          "type": "address"
        }
      ],
      "stateMutability": "view",
      "type": "function"
    },
    {
      "inputs": [
        {
          "internalType": "uint256",
          "name": "tokenId",
          "type": "uint256"
        }
      ],
      "name": "ownerOf",
      "outputs": [
        {
          "internalType": "address",
          "name": "",
          "type": "address"
        }
      ],
      "stateMutability": "view",
      "type": "function"
    },
    {
      "inputs": [],
      "name": "pause",
      "outputs": [],
      "stateMutability": "nonpayable",
      "type": "function"
    },
    {
      "inputs": [],
      "name": "paused",
      "outputs": [
        {
          "internalType": "bool",
          "name": "",
          "type": "bool"
        }
      ],
      "stateMutability": "view",
      "type": "function"
    },
    {
      "inputs": [],
      "name": "renounceOwnership",
      "outputs": [],
      "stateMutability": "nonpayable",
      "type": "function"
    },
    {
      "inputs": [
        {
          "internalType": "address",
          "name": "to",
          "type": "address"
        }
      ],
      "name": "safeMint",
      "outputs": [],
      "stateMutability": "nonpayable",
      "type": "function"
    },
    {
      "inputs": [
        {
          "internalType": "address",
          "name": "from",
          "type": "address"
        },
        {
          "internalType": "address",
          "name": "to",
          "type": "address"
        },
        {
          "internalType": "uint256",
          "name": "tokenId",
          "type": "uint256"
        }
      ],
      "name": "safeTransferFrom",
      "outputs": [],
      "stateMutability": "nonpayable",
      "type": "function"
    },
    {
      "inputs": [
        {
          "internalType": "address",
          "name": "from",
          "type": "address"
        },
        {
          "internalType": "address",
          "name": "to",
          "type": "address"
        },
        {
          "internalType": "uint256",
          "name": "tokenId",
          "type": "uint256"
        },
        {
          "internalType": "bytes",
          "name": "data",
          "type": "bytes"
        }
      ],
      "name": "safeTransferFrom",
      "outputs": [],
      "stateMutability": "nonpayable",
      "type": "function"
    },
    {
      "inputs": [
        {
          "internalType": "address",
          "name": "operator",
          "type": "address"
        },
        {
          "internalType": "bool",
          "name": "approved",
          "type": "bool"
        }
      ],
      "name": "setApprovalForAll",
      "outputs": [],
      "stateMutability": "nonpayable",
      "type": "function"
    },
    {
      "inputs": [
        {
          "internalType": "bytes4",
          "name": "interfaceId",
          "type": "bytes4"
        }
      ],
      "name": "supportsInterface",
      "outputs": [
        {
          "internalType": "bool",
          "name": "",
          "type": "bool"
        }
      ],
      "stateMutability": "view",
      "type": "function"
    },
    {
      "inputs": [],
      "name": "symbol",
      "outputs": [
        {
          "internalType": "string",
          "name": "",
          "type": "string"
        }
      ],
      "stateMutability": "view",
      "type": "function"
    },
    {
      "inputs": [
        {
          "internalType": "uint256",
          "name": "tokenId",
          "type": "uint256"
        }
      ],
      "name": "tokenURI",
      "outputs": [
        {
          "internalType": "string",
          "name": "",
          "type": "string"
        }
      ],
      "stateMutability": "view",
      "type": "function"
    },
    {
      "inputs": [
        {
          "internalType": "address",
          "name": "from",
          "type": "address"
        },
        {
          "internalType": "address",
          "name": "to",
          "type": "address"
        },
        {
          "internalType": "uint256",
          "name": "tokenId",
          "type": "uint256"
        }
      ],
      "name": "transferFrom",
      "outputs": [],
      "stateMutability": "nonpayable",
      "type": "function"
    },
    {
      "inputs": [
        {
          "internalType": "address",
          "name": "newOwner",
          "type": "address"
        }
      ],
      "name": "transferOwnership",
      "outputs": [],
      "stateMutability": "nonpayable",
      "type": "function"
    },
    {
      "inputs": [],
      "name": "unpause",
      "outputs": [],
      "stateMutability": "nonpayable",
      "type": "function"
    }
  ],
  "bytecode": "0x60806040523480156200001157600080fd5b506040518060600160405280603c815260200162003006603c91396040518060400160405280600981526020017f484746464632303232000000000000000000000000000000000000000000000081525081600090805190602001906200007a92919062000296565b5080600190805190602001906200009392919062000296565b5050506000600660006101000a81548160ff021916908315150217905550620000d1620000c5620000e760201b60201c565b620000ef60201b60201c565b620000e1620001b560201b60201c565b62000490565b600033905090565b6000600660019054906101000a900473ffffffffffffffffffffffffffffffffffffffff16905081600660016101000a81548173ffffffffffffffffffffffffffffffffffffffff021916908373ffffffffffffffffffffffffffffffffffffffff1602179055508173ffffffffffffffffffffffffffffffffffffffff168173ffffffffffffffffffffffffffffffffffffffff167f8be0079c531659141344cd1fd0a4f28419497f9722a3daafe3b4186f6b6457e060405160405180910390a35050565b620001c56200022a60201b60201c565b6001600660006101000a81548160ff0219169083151502179055507f62e78cea01bee320cd4e420270b5ea74000d11b0c9f74754ebdbfc544b05a25862000211620000e760201b60201c565b6040516200022091906200038b565b60405180910390a1565b6200023a6200027f60201b60201c565b156200027d576040517f08c379a0000000000000000000000000000000000000000000000000000000008152600401620002749062000409565b60405180910390fd5b565b6000600660009054906101000a900460ff16905090565b828054620002a4906200045a565b90600052602060002090601f016020900481019282620002c8576000855562000314565b82601f10620002e357805160ff191683800117855562000314565b8280016001018555821562000314579182015b8281111562000313578251825591602001919060010190620002f6565b5b50905062000323919062000327565b5090565b5b808211156200034257600081600090555060010162000328565b5090565b600073ffffffffffffffffffffffffffffffffffffffff82169050919050565b6000620003738262000346565b9050919050565b620003858162000366565b82525050565b6000602082019050620003a260008301846200037a565b92915050565b600082825260208201905092915050565b7f5061757361626c653a2070617573656400000000000000000000000000000000600082015250565b6000620003f1601083620003a8565b9150620003fe82620003b9565b602082019050919050565b600060208201905081810360008301526200042481620003e2565b9050919050565b7f4e487b7100000000000000000000000000000000000000000000000000000000600052602260045260246000fd5b600060028204905060018216806200047357607f821691505b602082108114156200048a57620004896200042b565b5b50919050565b612b6680620004a06000396000f3fe608060405234801561001057600080fd5b506004361061012c5760003560e01c806370a08231116100ad578063a22cb46511610071578063a22cb465146102f7578063b88d4fde14610313578063c87b56dd1461032f578063e985e9c51461035f578063f2fde38b1461038f5761012c565b806370a0823114610277578063715018a6146102a75780638456cb59146102b15780638da5cb5b146102bb57806395d89b41146102d95761012c565b80633f4ba83a116100f45780633f4ba83a146101e757806340d097c3146101f157806342842e0e1461020d5780635c975abb146102295780636352211e146102475761012c565b806301ffc9a71461013157806306fdde0314610161578063081812fc1461017f578063095ea7b3146101af57806323b872dd146101cb575b600080fd5b61014b60048036038101906101469190611b3d565b6103ab565b6040516101589190611b85565b60405180910390f35b61016961048d565b6040516101769190611c39565b60405180910390f35b61019960048036038101906101949190611c91565b61051f565b6040516101a69190611cff565b60405180910390f35b6101c960048036038101906101c49190611d46565b610565565b005b6101e560048036038101906101e09190611d86565b61067d565b005b6101ef6106dd565b005b61020b60048036038101906102069190611dd9565b6106ef565b005b61022760048036038101906102229190611d86565b6108f5565b005b610231610915565b60405161023e9190611b85565b60405180910390f35b610261600480360381019061025c9190611c91565b61092c565b60405161026e9190611cff565b60405180910390f35b610291600480360381019061028c9190611dd9565b6109de565b60405161029e9190611e15565b60405180910390f35b6102af610a96565b005b6102b9610aaa565b005b6102c3610abc565b6040516102d09190611cff565b60405180910390f35b6102e1610ae6565b6040516102ee9190611c39565b60405180910390f35b610311600480360381019061030c9190611e5c565b610b78565b005b61032d60048036038101906103289190611fd1565b610b8e565b005b61034960048036038101906103449190611c91565b610bf0565b6040516103569190611c39565b60405180910390f35b61037960048036038101906103749190612054565b610c0a565b6040516103869190611b85565b60405180910390f35b6103a960048036038101906103a49190611dd9565b610c9e565b005b60007f80ac58cd000000000000000000000000000000000000000000000000000000007bffffffffffffffffffffffffffffffffffffffffffffffffffffffff1916827bffffffffffffffffffffffffffffffffffffffffffffffffffffffff1916148061047657507f5b5e139f000000000000000000000000000000000000000000000000000000007bffffffffffffffffffffffffffffffffffffffffffffffffffffffff1916827bffffffffffffffffffffffffffffffffffffffffffffffffffffffff1916145b80610486575061048582610d22565b5b9050919050565b60606000805461049c906120c3565b80601f01602080910402602001604051908101604052809291908181526020018280546104c8906120c3565b80156105155780601f106104ea57610100808354040283529160200191610515565b820191906000526020600020905b8154815290600101906020018083116104f857829003601f168201915b5050505050905090565b600061052a82610d8c565b6004600083815260200190815260200160002060009054906101000a900473ffffffffffffffffffffffffffffffffffffffff169050919050565b60006105708261092c565b90508073ffffffffffffffffffffffffffffffffffffffff168373ffffffffffffffffffffffffffffffffffffffff1614156105e1576040517f08c379a00000000000000000000000000000000000000000000000000000000081526004016105d890612167565b60405180910390fd5b8073ffffffffffffffffffffffffffffffffffffffff16610600610dd7565b73ffffffffffffffffffffffffffffffffffffffff16148061062f575061062e81610629610dd7565b610c0a565b5b61066e576040517f08c379a0000000000000000000000000000000000000000000000000000000008152600401610665906121f9565b60405180910390fd5b6106788383610ddf565b505050565b61068e610688610dd7565b82610e98565b6106cd576040517f08c379a00000000000000000000000000000000000000000000000000000000081526004016106c49061228b565b60405180910390fd5b6106d8838383610f2d565b505050565b6106e5611194565b6106ed611212565b565b6106f7611275565b8060001515600860003373ffffffffffffffffffffffffffffffffffffffff1673ffffffffffffffffffffffffffffffffffffffff16815260200190815260200160002060009054906101000a900460ff1615151461078b576040517f08c379a0000000000000000000000000000000000000000000000000000000008152600401610782906122f7565b60405180910390fd5b60001515600960008373ffffffffffffffffffffffffffffffffffffffff1673ffffffffffffffffffffffffffffffffffffffff16815260200190815260200160002060009054906101000a900460ff1615151461081e576040517f08c379a000000000000000000000000000000000000000000000000000000000815260040161081590612363565b60405180910390fd5b600061082a60076112bf565b905061083660076112cd565b61084083826112e3565b506001600860003373ffffffffffffffffffffffffffffffffffffffff1673ffffffffffffffffffffffffffffffffffffffff16815260200190815260200160002060006101000a81548160ff0219169083151502179055506001600960008373ffffffffffffffffffffffffffffffffffffffff1673ffffffffffffffffffffffffffffffffffffffff16815260200190815260200160002060006101000a81548160ff0219169083151502179055505050565b61091083838360405180602001604052806000815250610b8e565b505050565b6000600660009054906101000a900460ff16905090565b6000806002600084815260200190815260200160002060009054906101000a900473ffffffffffffffffffffffffffffffffffffffff169050600073ffffffffffffffffffffffffffffffffffffffff168173ffffffffffffffffffffffffffffffffffffffff1614156109d5576040517f08c379a00000000000000000000000000000000000000000000000000000000081526004016109cc906123cf565b60405180910390fd5b80915050919050565b60008073ffffffffffffffffffffffffffffffffffffffff168273ffffffffffffffffffffffffffffffffffffffff161415610a4f576040517f08c379a0000000000000000000000000000000000000000000000000000000008152600401610a4690612461565b60405180910390fd5b600360008373ffffffffffffffffffffffffffffffffffffffff1673ffffffffffffffffffffffffffffffffffffffff168152602001908152602001600020549050919050565b610a9e611194565b610aa86000611301565b565b610ab2611194565b610aba6113c7565b565b6000600660019054906101000a900473ffffffffffffffffffffffffffffffffffffffff16905090565b606060018054610af5906120c3565b80601f0160208091040260200160405190810160405280929190818152602001828054610b21906120c3565b8015610b6e5780601f10610b4357610100808354040283529160200191610b6e565b820191906000526020600020905b815481529060010190602001808311610b5157829003601f168201915b5050505050905090565b610b8a610b83610dd7565b838361142a565b5050565b610b9f610b99610dd7565b83610e98565b610bde576040517f08c379a0000000000000000000000000000000000000000000000000000000008152600401610bd59061228b565b60405180910390fd5b610bea84848484611597565b50505050565b6060610bfb82610d8c565b610c036115f3565b9050919050565b6000600560008473ffffffffffffffffffffffffffffffffffffffff1673ffffffffffffffffffffffffffffffffffffffff16815260200190815260200160002060008373ffffffffffffffffffffffffffffffffffffffff1673ffffffffffffffffffffffffffffffffffffffff16815260200190815260200160002060009054906101000a900460ff16905092915050565b610ca6611194565b600073ffffffffffffffffffffffffffffffffffffffff168173ffffffffffffffffffffffffffffffffffffffff161415610d16576040517f08c379a0000000000000000000000000000000000000000000000000000000008152600401610d0d906124f3565b60405180910390fd5b610d1f81611301565b50565b60007f01ffc9a7000000000000000000000000000000000000000000000000000000007bffffffffffffffffffffffffffffffffffffffffffffffffffffffff1916827bffffffffffffffffffffffffffffffffffffffffffffffffffffffff1916149050919050565b610d9581611613565b610dd4576040517f08c379a0000000000000000000000000000000000000000000000000000000008152600401610dcb906123cf565b60405180910390fd5b50565b600033905090565b816004600083815260200190815260200160002060006101000a81548173ffffffffffffffffffffffffffffffffffffffff021916908373ffffffffffffffffffffffffffffffffffffffff160217905550808273ffffffffffffffffffffffffffffffffffffffff16610e528361092c565b73ffffffffffffffffffffffffffffffffffffffff167f8c5be1e5ebec7d5bd14f71427d1e84f3dd0314c0f7b2291e5b200ac8c7c3b92560405160405180910390a45050565b600080610ea48361092c565b90508073ffffffffffffffffffffffffffffffffffffffff168473ffffffffffffffffffffffffffffffffffffffff161480610ee65750610ee58185610c0a565b5b80610f2457508373ffffffffffffffffffffffffffffffffffffffff16610f0c8461051f565b73ffffffffffffffffffffffffffffffffffffffff16145b91505092915050565b8273ffffffffffffffffffffffffffffffffffffffff16610f4d8261092c565b73ffffffffffffffffffffffffffffffffffffffff1614610fa3576040517f08c379a0000000000000000000000000000000000000000000000000000000008152600401610f9a90612585565b60405180910390fd5b600073ffffffffffffffffffffffffffffffffffffffff168273ffffffffffffffffffffffffffffffffffffffff161415611013576040517f08c379a000000000000000000000000000000000000000000000000000000000815260040161100a90612617565b60405180910390fd5b61101e83838361167f565b611029600082610ddf565b6001600360008573ffffffffffffffffffffffffffffffffffffffff1673ffffffffffffffffffffffffffffffffffffffff16815260200190815260200160002060008282546110799190612666565b925050819055506001600360008473ffffffffffffffffffffffffffffffffffffffff1673ffffffffffffffffffffffffffffffffffffffff16815260200190815260200160002060008282546110d0919061269a565b92505081905550816002600083815260200190815260200160002060006101000a81548173ffffffffffffffffffffffffffffffffffffffff021916908373ffffffffffffffffffffffffffffffffffffffff160217905550808273ffffffffffffffffffffffffffffffffffffffff168473ffffffffffffffffffffffffffffffffffffffff167fddf252ad1be2c89b69c2b068fc378daa952ba7f163c4a11628f55a4df523b3ef60405160405180910390a461118f83838361168f565b505050565b61119c610dd7565b73ffffffffffffffffffffffffffffffffffffffff166111ba610abc565b73ffffffffffffffffffffffffffffffffffffffff1614611210576040517f08c379a00000000000000000000000000000000000000000000000000000000081526004016112079061273c565b60405180910390fd5b565b61121a611694565b6000600660006101000a81548160ff0219169083151502179055507f5db9ee0a495bf2e6ff9c91a7834c1ba4fdd244a5e8aa4e537bd38aeae4b073aa61125e610dd7565b60405161126b9190611cff565b60405180910390a1565b61127d610915565b156112bd576040517f08c379a00000000000000000000000000000000000000000000000000000000081526004016112b4906127a8565b60405180910390fd5b565b600081600001549050919050565b6001816000016000828254019250508190555050565b6112fd8282604051806020016040528060008152506116dd565b5050565b6000600660019054906101000a900473ffffffffffffffffffffffffffffffffffffffff16905081600660016101000a81548173ffffffffffffffffffffffffffffffffffffffff021916908373ffffffffffffffffffffffffffffffffffffffff1602179055508173ffffffffffffffffffffffffffffffffffffffff168173ffffffffffffffffffffffffffffffffffffffff167f8be0079c531659141344cd1fd0a4f28419497f9722a3daafe3b4186f6b6457e060405160405180910390a35050565b6113cf611275565b6001600660006101000a81548160ff0219169083151502179055507f62e78cea01bee320cd4e420270b5ea74000d11b0c9f74754ebdbfc544b05a258611413610dd7565b6040516114209190611cff565b60405180910390a1565b8173ffffffffffffffffffffffffffffffffffffffff168373ffffffffffffffffffffffffffffffffffffffff161415611499576040517f08c379a000000000000000000000000000000000000000000000000000000000815260040161149090612814565b60405180910390fd5b80600560008573ffffffffffffffffffffffffffffffffffffffff1673ffffffffffffffffffffffffffffffffffffffff16815260200190815260200160002060008473ffffffffffffffffffffffffffffffffffffffff1673ffffffffffffffffffffffffffffffffffffffff16815260200190815260200160002060006101000a81548160ff0219169083151502179055508173ffffffffffffffffffffffffffffffffffffffff168373ffffffffffffffffffffffffffffffffffffffff167f17307eab39ab6107e8899845ad3d59bd9653f200f220920489ca2b5937696c318360405161158a9190611b85565b60405180910390a3505050565b6115a2848484610f2d565b6115ae84848484611738565b6115ed576040517f08c379a00000000000000000000000000000000000000000000000000000000081526004016115e4906128a6565b60405180910390fd5b50505050565b6060604051806080016040528060438152602001612aee60439139905090565b60008073ffffffffffffffffffffffffffffffffffffffff166002600084815260200190815260200160002060009054906101000a900473ffffffffffffffffffffffffffffffffffffffff1673ffffffffffffffffffffffffffffffffffffffff1614159050919050565b61168a8383836118cf565b505050565b505050565b61169c610915565b6116db576040517f08c379a00000000000000000000000000000000000000000000000000000000081526004016116d290612912565b60405180910390fd5b565b6116e783836118d4565b6116f46000848484611738565b611733576040517f08c379a000000000000000000000000000000000000000000000000000000000815260040161172a906128a6565b60405180910390fd5b505050565b60006117598473ffffffffffffffffffffffffffffffffffffffff16611aae565b156118c2578373ffffffffffffffffffffffffffffffffffffffff1663150b7a02611782610dd7565b8786866040518563ffffffff1660e01b81526004016117a49493929190612987565b602060405180830381600087803b1580156117be57600080fd5b505af19250505080156117ef57506040513d601f19601f820116820180604052508101906117ec91906129e8565b60015b611872573d806000811461181f576040519150601f19603f3d011682016040523d82523d6000602084013e611824565b606091505b5060008151141561186a576040517f08c379a0000000000000000000000000000000000000000000000000000000008152600401611861906128a6565b60405180910390fd5b805181602001fd5b63150b7a0260e01b7bffffffffffffffffffffffffffffffffffffffffffffffffffffffff1916817bffffffffffffffffffffffffffffffffffffffffffffffffffffffff1916149150506118c7565b600190505b949350505050565b505050565b600073ffffffffffffffffffffffffffffffffffffffff168273ffffffffffffffffffffffffffffffffffffffff161415611944576040517f08c379a000000000000000000000000000000000000000000000000000000000815260040161193b90612a61565b60405180910390fd5b61194d81611613565b1561198d576040517f08c379a000000000000000000000000000000000000000000000000000000000815260040161198490612acd565b60405180910390fd5b6119996000838361167f565b6001600360008473ffffffffffffffffffffffffffffffffffffffff1673ffffffffffffffffffffffffffffffffffffffff16815260200190815260200160002060008282546119e9919061269a565b92505081905550816002600083815260200190815260200160002060006101000a81548173ffffffffffffffffffffffffffffffffffffffff021916908373ffffffffffffffffffffffffffffffffffffffff160217905550808273ffffffffffffffffffffffffffffffffffffffff16600073ffffffffffffffffffffffffffffffffffffffff167fddf252ad1be2c89b69c2b068fc378daa952ba7f163c4a11628f55a4df523b3ef60405160405180910390a4611aaa6000838361168f565b5050565b6000808273ffffffffffffffffffffffffffffffffffffffff163b119050919050565b6000604051905090565b600080fd5b600080fd5b60007fffffffff0000000000000000000000000000000000000000000000000000000082169050919050565b611b1a81611ae5565b8114611b2557600080fd5b50565b600081359050611b3781611b11565b92915050565b600060208284031215611b5357611b52611adb565b5b6000611b6184828501611b28565b91505092915050565b60008115159050919050565b611b7f81611b6a565b82525050565b6000602082019050611b9a6000830184611b76565b92915050565b600081519050919050565b600082825260208201905092915050565b60005b83811015611bda578082015181840152602081019050611bbf565b83811115611be9576000848401525b50505050565b6000601f19601f8301169050919050565b6000611c0b82611ba0565b611c158185611bab565b9350611c25818560208601611bbc565b611c2e81611bef565b840191505092915050565b60006020820190508181036000830152611c538184611c00565b905092915050565b6000819050919050565b611c6e81611c5b565b8114611c7957600080fd5b50565b600081359050611c8b81611c65565b92915050565b600060208284031215611ca757611ca6611adb565b5b6000611cb584828501611c7c565b91505092915050565b600073ffffffffffffffffffffffffffffffffffffffff82169050919050565b6000611ce982611cbe565b9050919050565b611cf981611cde565b82525050565b6000602082019050611d146000830184611cf0565b92915050565b611d2381611cde565b8114611d2e57600080fd5b50565b600081359050611d4081611d1a565b92915050565b60008060408385031215611d5d57611d5c611adb565b5b6000611d6b85828601611d31565b9250506020611d7c85828601611c7c565b9150509250929050565b600080600060608486031215611d9f57611d9e611adb565b5b6000611dad86828701611d31565b9350506020611dbe86828701611d31565b9250506040611dcf86828701611c7c565b9150509250925092565b600060208284031215611def57611dee611adb565b5b6000611dfd84828501611d31565b91505092915050565b611e0f81611c5b565b82525050565b6000602082019050611e2a6000830184611e06565b92915050565b611e3981611b6a565b8114611e4457600080fd5b50565b600081359050611e5681611e30565b92915050565b60008060408385031215611e7357611e72611adb565b5b6000611e8185828601611d31565b9250506020611e9285828601611e47565b9150509250929050565b600080fd5b600080fd5b7f4e487b7100000000000000000000000000000000000000000000000000000000600052604160045260246000fd5b611ede82611bef565b810181811067ffffffffffffffff82111715611efd57611efc611ea6565b5b80604052505050565b6000611f10611ad1565b9050611f1c8282611ed5565b919050565b600067ffffffffffffffff821115611f3c57611f3b611ea6565b5b611f4582611bef565b9050602081019050919050565b82818337600083830152505050565b6000611f74611f6f84611f21565b611f06565b905082815260208101848484011115611f9057611f8f611ea1565b5b611f9b848285611f52565b509392505050565b600082601f830112611fb857611fb7611e9c565b5b8135611fc8848260208601611f61565b91505092915050565b60008060008060808587031215611feb57611fea611adb565b5b6000611ff987828801611d31565b945050602061200a87828801611d31565b935050604061201b87828801611c7c565b925050606085013567ffffffffffffffff81111561203c5761203b611ae0565b5b61204887828801611fa3565b91505092959194509250565b6000806040838503121561206b5761206a611adb565b5b600061207985828601611d31565b925050602061208a85828601611d31565b9150509250929050565b7f4e487b7100000000000000000000000000000000000000000000000000000000600052602260045260246000fd5b600060028204905060018216806120db57607f821691505b602082108114156120ef576120ee612094565b5b50919050565b7f4552433732313a20617070726f76616c20746f2063757272656e74206f776e6560008201527f7200000000000000000000000000000000000000000000000000000000000000602082015250565b6000612151602183611bab565b915061215c826120f5565b604082019050919050565b6000602082019050818103600083015261218081612144565b9050919050565b7f4552433732313a20617070726f76652063616c6c6572206973206e6f7420746f60008201527f6b656e206f776e6572206e6f7220617070726f76656420666f7220616c6c0000602082015250565b60006121e3603e83611bab565b91506121ee82612187565b604082019050919050565b60006020820190508181036000830152612212816121d6565b9050919050565b7f4552433732313a2063616c6c6572206973206e6f7420746f6b656e206f776e6560008201527f72206e6f7220617070726f766564000000000000000000000000000000000000602082015250565b6000612275602e83611bab565b915061228082612219565b604082019050919050565b600060208201905081810360008301526122a481612268565b9050919050565b7f596f752063616e206f6e6c79206d696e74206f6e6520746f6b656e0000000000600082015250565b60006122e1601b83611bab565b91506122ec826122ab565b602082019050919050565b60006020820190508181036000830152612310816122d4565b9050919050565b7f596f752063616e206f6e6c792072656365697665206f6e6520746f6b656e0000600082015250565b600061234d601e83611bab565b915061235882612317565b602082019050919050565b6000602082019050818103600083015261237c81612340565b9050919050565b7f4552433732313a20696e76616c696420746f6b656e2049440000000000000000600082015250565b60006123b9601883611bab565b91506123c482612383565b602082019050919050565b600060208201905081810360008301526123e8816123ac565b9050919050565b7f4552433732313a2061646472657373207a65726f206973206e6f74206120766160008201527f6c6964206f776e65720000000000000000000000000000000000000000000000602082015250565b600061244b602983611bab565b9150612456826123ef565b604082019050919050565b6000602082019050818103600083015261247a8161243e565b9050919050565b7f4f776e61626c653a206e6577206f776e657220697320746865207a65726f206160008201527f6464726573730000000000000000000000000000000000000000000000000000602082015250565b60006124dd602683611bab565b91506124e882612481565b604082019050919050565b6000602082019050818103600083015261250c816124d0565b9050919050565b7f4552433732313a207472616e736665722066726f6d20696e636f72726563742060008201527f6f776e6572000000000000000000000000000000000000000000000000000000602082015250565b600061256f602583611bab565b915061257a82612513565b604082019050919050565b6000602082019050818103600083015261259e81612562565b9050919050565b7f4552433732313a207472616e7366657220746f20746865207a65726f2061646460008201527f7265737300000000000000000000000000000000000000000000000000000000602082015250565b6000612601602483611bab565b915061260c826125a5565b604082019050919050565b60006020820190508181036000830152612630816125f4565b9050919050565b7f4e487b7100000000000000000000000000000000000000000000000000000000600052601160045260246000fd5b600061267182611c5b565b915061267c83611c5b565b92508282101561268f5761268e612637565b5b828203905092915050565b60006126a582611c5b565b91506126b083611c5b565b9250827fffffffffffffffffffffffffffffffffffffffffffffffffffffffffffffffff038211156126e5576126e4612637565b5b828201905092915050565b7f4f776e61626c653a2063616c6c6572206973206e6f7420746865206f776e6572600082015250565b6000612726602083611bab565b9150612731826126f0565b602082019050919050565b6000602082019050818103600083015261275581612719565b9050919050565b7f5061757361626c653a2070617573656400000000000000000000000000000000600082015250565b6000612792601083611bab565b915061279d8261275c565b602082019050919050565b600060208201905081810360008301526127c181612785565b9050919050565b7f4552433732313a20617070726f766520746f2063616c6c657200000000000000600082015250565b60006127fe601983611bab565b9150612809826127c8565b602082019050919050565b6000602082019050818103600083015261282d816127f1565b9050919050565b7f4552433732313a207472616e7366657220746f206e6f6e20455243373231526560008201527f63656976657220696d706c656d656e7465720000000000000000000000000000602082015250565b6000612890603283611bab565b915061289b82612834565b604082019050919050565b600060208201905081810360008301526128bf81612883565b9050919050565b7f5061757361626c653a206e6f7420706175736564000000000000000000000000600082015250565b60006128fc601483611bab565b9150612907826128c6565b602082019050919050565b6000602082019050818103600083015261292b816128ef565b9050919050565b600081519050919050565b600082825260208201905092915050565b600061295982612932565b612963818561293d565b9350612973818560208601611bbc565b61297c81611bef565b840191505092915050565b600060808201905061299c6000830187611cf0565b6129a96020830186611cf0565b6129b66040830185611e06565b81810360608301526129c8818461294e565b905095945050505050565b6000815190506129e281611b11565b92915050565b6000602082840312156129fe576129fd611adb565b5b6000612a0c848285016129d3565b91505092915050565b7f4552433732313a206d696e7420746f20746865207a65726f2061646472657373600082015250565b6000612a4b602083611bab565b9150612a5682612a15565b602082019050919050565b60006020820190508181036000830152612a7a81612a3e565b9050919050565b7f4552433732313a20746f6b656e20616c7265616479206d696e74656400000000600082015250565b6000612ab7601c83611bab565b9150612ac282612a81565b602082019050919050565b60006020820190508181036000830152612ae681612aaa565b905091905056fe68747470733a2f2f697066732e696f2f697066732f516d5045313247705a754542324c4c336155714b5a7a54753277696441747771535659384c39663632416355566da2646970667358221220aae7b88bf4023cfd77aa1a55a2d2715d7f07e80e0e70091b95ce677c93cc7b3f64736f6c6343000809003348797065726c65646765722046697265466c7920576f726b73686f70205061727469636970616e74202d20476c6f62616c20466f72756d2032303232",
  "linkReferences": {},
  "deployedLinkReferences": {}
}